:100000000C94B0020C94F7020C94F7020C949C1E12
:100010000C94F7020C94F7020C94F7020C94F7027C
:100020000C94F7020C94F7020C94F2310C94C43245
:100030000C94062D0C94F7020C94F7020C94F70222
:100040000C94F7020C94F7020C94F7020C94F7024C
:100050000C94F7020C947B2D0C94F7020C94F7028D
:100060000C94F7020C94F7020C94F7020C94F7022C
:100070000C94F7020C94F7020C94F7020C94F7021C
:100080000C94F7020C94F7020C94F7020C94F7020C
:100090000C94F7020C94F7020C94F7020C94F702FC
:1000A0000C94F7020C94F7020C94F7025A1563159E
:1000B00068156D15721577157C15811586158B15CC
:1000C000901595159A159F15A415A915AE15B3157C
:1000D000B815BD15C215C715CC15D115D615DB152C
:1000E000E015E515EA15EF15F415F915A717AA1788
:1000F000AF17B617BB17C017C517CA17CF17D41736
:10010000D917DE17E017E217E417EA17EA17EA171C
:10011000EA17EA17B822B822EA22EA2237235E2435
:100120005E245E245523EE23FF23FF2308250825A4
:100130001A251A2511251A251A251A2508250825F4
:1001400016251A251A2516253133583350345833BD
:100150005034A433C73350341E342D342B001400D4
:100160001A00080015001700E00004001600070040
:1001700009000A0000571D001B00060019000500B9
:10018000000000000000E300295D2C002A0013009D
:1001900012000C0018001C00025704570F000E003C
:1001A0000D000B00E5000157370036001000055721
:1001B00000000000000003572A5D280029001E00EF
:1001C0001F00200021002200E000000016030000B4
:1001D00000000000E100000000000000000000003E
:1001E000000000000000E30001002C002A002700AE
:1001F0002600250024002300000000004F005200CC
:10020000510050000000000000000000000000004D
:10021000000000000000E6002A5D280029001E0200
:100220001F02200221022202E00000000000000064
:1002300000000000E10000000000000000000000DD
:10024000000000000000E300295D2C002A002702C6
:1002500026022502240223023500310230022F0239
:100260002E002D003502310030002F002E022D020D
:10027000000000000000E60001002800005C2D5D89
:100280000000000000000000C25CC55CC75CC95CE7
:1002900000000000C35CC65CC85CCA5C00000000D3
:1002A000000000000000E30001002C00000000003E
:1002B000000000000000000000000000000000003E
:1002C000000000000000000000000000000000002E
:1002D000000000000000E60001002800000101010C
:1002E00001010101010102020202020202020203F3
:1002F00003030303030303040404040404040505C3
:100300000505050606060606070707070708080885
:1003100008090909090A0A0A0B0B0B0C0C0C0D0D34
:100320000D0E0E0E0F0F0F101011111112121313CC
:100330001414151516161717181819191A1A1B1B45
:100340001C1D1D1E1E1F20202122222324242526A1
:1003500026272829292A2B2C2D2D2E2F30313232D9
:10036000333435363738393A3B3C3D3E3F404142E5
:10037000434445464748494A4C4D4E4F50515354CB
:10038000555658595A5B5D5E5F616264656668697F
:100390006B6C6D6F7072737577787A7B7D7E8082FF
:1003A000838587888A8C8E8F91939596989A9C9E48
:1003B000A0A2A3A5A7A9ABADAFB1B3B5B7BABCBE58
:1003C000C0C2C4C6C9CBCDCFD1D4D6D8DBDDDFE225
:1003D000E4E7E9EBEEF0F3F5F8FAFDFF00AE00AF6D
:1003E00000DA0281FFD9F1DB20A4A62EAF00A0C065
:1003F00000A1C800AED580A81FD300408D142000F6
:10040000040330000000480343006F0072006E00D8
:10041000650020004B006500790062006F006100FC
:100420007200640020005200650076002E0031004A
:10043000200028004C00650067006100630079001F
:100440002000530070006C00690074002900000057
:10045000100366006F006F007300740061006E008F
:1004600000000403090409023B00020100A0FA098C
:1004700004000001030101000921110100012240D3
:10048000000705810308000A0904010001030000B8
:1004900000092111010001226D00070582032000DF
:1004A0000A1201100100000008534601000100017A
:1004B00002030105010980A101850319012AB70082
:1004C000150126B700950175108100C0050C0901C2
:1004D000A101850419012AA002150126A002950197
:1004E00075108100C005010906A1018505050719E0
:1004F000E029E71500250195087501810205071916
:100500000029EF1500250195F075018102050819F4
:10051000012905950575019102950175039101C0A9
:1005200005010906A101050719E029E715002501C4
:10053000950875018102950175088101050719006B
:1005400029FF150026FF009506750881000508198A
:10055000012905950575019102950175039101C069
:1005600011241FBECFEFDAE0DEBFCDBF04B603FE1D
:1005700027C080913F0890914008A0914108B09118
:1005800042088730904BA740B04BD1F410923F08FF
:1005900010924008109241081092420814BE84B78D
:1005A000877F84BF0FB6F894A8958091600088611A
:1005B00080936000109260000FBEE0E0F8E30995C0
:1005C00013E0A0E0B1E0E6EBFBE602C005900D927F
:1005D000AC3EB107D9F728E0ACEEB3E001C01D9204
:1005E000AF33B207E1F70E94302F0C94D9350C9449
:1005F0000000CF93DF93AAE6B3E04EE653E061E05C
:1006000070E08D91E82FE295EF70F0E021A18F70FE
:10061000EB0102C0CC0FDD1F8A95E2F7CE019C2FC3
:100620009095922391A392A1892B82A34A175B07ED
:1006300041F7DF91CF91089508950C941C03209AFF
:10064000559A289A5D9A08955D9808955D9A08953F
:1006500028980895289A08950E94E8040E94F902B3
:10066000A4E6B3E041E050E08D91E82FE295EF7011
:10067000F0E021A18F70BA0102C0660F771F8A9542
:10068000E2F7CB01962F9095922391A392A1892B0B
:1006900082A373E0AA36B70739F70E941F03E4EF7D
:1006A000F3E0ACEEB3E011921D9283E0EC3FF8076B
:1006B000D1F70E94C9048093FC030C94A4068F9286
:1006C0009F92AF92BF92CF92DF92EF92FF920F93E1
:1006D0001F93CF93DF9380910501811103C0C4E084
:1006E000D0E002C0C0E0D0E0AE0144515C4F7A01DE
:1006F0008AE6C82E83E0D82E8A01912CAA24A394DE
:10070000B12C25E0822EFEE6CF16F3E0DF0609F4D9
:100710004CC0F60181916F01E82FE295EF70F0E097
:1007200021A18F70A50102C0440F551F8A95E2F7E1
:10073000CA01922F982B91A392A18095892382A31D
:1007400050EA5A95F1F7E4E6F3E020E040E050E0AB
:100750003191A32FA295AF70B0E090968C9190E06C
:100760003F7002C0959587953A95E2F780FD07C0E6
:10077000C501042E01C0880F0A94EAF702C080E088
:1007800090E0282B4F5F5F4F4630510509F7F80185
:100790008081821729F02083809204019924939408
:1007A0000E94F9020F5F1F4FAECF80910401882392
:1007B000B1F0815080930401811103C0CC50DC4F13
:1007C00007C08FE99FE00197F1F700C0000007C064
:1007D000F70191917F0199938F5F8430C9F7892D3B
:1007E000DF91CF911F910F91FF90EF90DF90CF900D
:1007F000BF90AF909F908F900895CF93DF932091FB
:100800000501211103C0C0E0D0E002C0C4E0D0E087
:100810000E940305009729F00297B1F40E94280373
:1008200013C00E942A03CC50DC4F809108049091A1
:100830000904A0910A04B0910B0488839983AA83C8
:10084000BB8380E090E002C081E090E0DF91CF9137
:1008500008950E945F0390910501911103C0E4E0A7
:10086000F0E002C0E0E0F0E0EC50FC4F20E030E0CF
:1008700090E0D901A85FBB4F5C914191541391E086
:100880004C932F5F3F4F2430310599F7209101049D
:10089000920F9093010408951F93CF93DF9380915B
:1008A000FC03882309F449C00E945F03182F80913C
:1008B0000501811103C0C4E0D0E002C0C0E0D0E077
:1008C000CC50DC4F44E050E0BE0184E094E00E9454
:1008D0004F35488159816A817B814093040450934C
:1008E000050460930604709307040E94FD03892B9E
:1008F000C9F00E9424038091FD038F5F8093FD0364
:100900008630A0F080910501811103C0E0E0F0E0A5
:1009100002C0E4E0F0E0EC50FC4F10821182128241
:10092000138204C00E9426031092FD030E94AE06AB
:10093000C1E0111122C0C0E020C00E942904C1E022
:10094000811101C0C0E080910501811103C080E0E8
:1009500090E002C084E090E0FC01EC50FC4F40913C
:1009600004045091050460910604709107044083CB
:100970005183628373830E94AE068C2FDF91CF91E7
:100980001F910895E82FF0E0EC50FC4F808108950E
:1009900008958091FE03811112C08091D80080617A
:1009A0008093D8008AE18A95F1F700C08091D90040
:1009B00080FD02C082E001C081E08093FE0381E0FF
:1009C0009091FE03913009F080E008950C94C904E1
:1009D0000E94E604809305010E94C904882319F04F
:1009E0000E94F70402C00E94FD047894089563E019
:1009F00070E086E091E00C944A1E63E070E086E0CF
:100A000091E00C94531E0F931F93CF93DF938C01AF
:100A100090911F0180911E01981761F082E090E093
:100A20000E942C1FEC01892B39F480911E018093C8
:100A30001F0102C0C0E0D0E0012B49F48091FF0308
:100A400090910004892B19F480E090E002C081E0CD
:100A500090E00E942C1F892B49F48091010480931F
:100A60001E01109200041092FF0306C081E090E086
:100A7000909300048093FF03CE01DF91CF911F91EB
:100A80000F91089580910501811109C082EDEFE871
:100A9000F2E0A0E2B1E001900D928A95E1F70C94AA
:100AA0007405CF93DF93EC010E945A2BBE0180E0C6
:100AB00090E0DF91CF910C945828CF93DF93D62FFD
:100AC000C42F0E94B828882351F08D2F0E94B82887
:100AD000882329F08C2FDF91CF910C94D8288C2F6C
:100AE000DF91CF910C94F9280895CF93DF93609113
:100AF00001057091020580910305909104050E9403
:100B0000F72A813079F08230D1F4C0E0D0E020E0E3
:100B100040E06FEFCE010E94900D2196C633D105C3
:100B2000B1F71DC0C0E0D0E02FEF40E060E0CE01A3
:100B30000E94900D2196C633D105B1F710C00E94D6
:100B4000992081FF0CC0C0E0D0E020E04FEF60E0D2
:100B5000CE010E94900D2196C633D105B1F7DF91E9
:100B6000CF910895CF93FB0189322DE59207D1F003
:100B700040F4833C2CE59207B1F188329D4551F059
:100B800007C08A322DE5920781F08B329D4509F12D
:100B9000C1E02AC0C281CC2339F181E090E00E94FB
:100BA000510521C0C28181E002C0C28182E0CC2314
:100BB00041F00E94D82843E062E081E00E945D0598
:100BC00012C00E94F92843E062E081E00E945D05C6
:100BD0000BC0C28183E0CC2319F00E94D82803C047
:100BE0000E94F92801C0C0E08C2FCF91089581E0C8
:100BF0000C947D1680E00C947D169C013A9521158D
:100C00003F4138F5DC01AA27B270AC01442754708B
:100C10009C012227387094FF0FC090FF02C080E132
:100C200001C080E0AB2B09F08062452B09F08064A5
:100C3000232B69F080680BC0892F8170AB2B09F0E2
:100C40008260452B09F08460232B09F08860FB014A
:100C500009940895CF93DF93EC01805E9109089782
:100C600010F0209719F460E772E202C062ED74E2BE
:100C7000CE010E94FD058C2FDF91CF910C94E321D2
:100C8000CF93DF93EC010E943122CE01805E910967
:100C9000089710F0209719F467E772E202C069ED37
:100CA00074E2CE01DF91CF910C94FD0581E00895AF
:100CB0000C94B20508950C945A061F93CF93DF93BA
:100CC00000D000D01F92CDB7DEB749835A836B8323
:100CD0003091AA0489819A81311114C0662359F098
:100CE000222349F00E94CF29182F682F89819A81E9
:100CF0000E94762903C00E94A229182F69817A8157
:100D0000812F04C00E94CF2969817A810F900F90B2
:100D10000F900F900F90DF91CF911F910C942707A8
:100D2000FC01262F408151816281738184810C9462
:100D30005D06CF93DF93EC0160E00E949006BE0158
:100D4000DF91CF910C945B060E94472B811102C06A
:100D50000E94EC2B0E944F160C9442050E94921D9B
:100D60000E94C1140C941D0308950E94F6240E9451
:100D7000B4062FEF84E39CE0215080409040E1F7DF
:100D800000C000000C94A12D0F931F93CF93DF930D
:100D9000EC0161E00E9490068C01BE010E94EF1CF4
:100DA000BE01C8010E941E148823D9F1BE01C801EA
:100DB0000E9458068823A9F1BE01C8010E94361D71
:100DC000882379F1BE01C8010E94AE1A882349F137
:100DD000BE01C8010E94001B882319F1BE01C80191
:100DE0000E942B1C8823E9F0BE01C8010E949017C5
:100DF0008823B9F08A81882369F001158CE51807EA
:100E000031F00E3D1C4531F40E94EC2B0AC00E94CB
:100E1000B50607C0CE01DF91CF911F910F910C94C1
:100E2000560680E0DF91CF911F910F9108950895AC
:100E30000C94170781E008950C941A07CF93C82FDC
:100E40000E9418078C2F0E941C07CF91089520E361
:100E5000829FC0011124FC0126E0729FE00DF11D6C
:100E60001124E60FF11DEE0FFF1FE45AFE4F85918E
:100E700094910895CF93DF930E9427070E942B0837
:100E8000EC0181159245F0F5C11581E5D80708F010
:100E9000A9C0C83ED10528F5C03ED10508F0D7C08D
:100EA000C83AD10578F4C53AD10508F074C0C1300C
:100EB000D10509F4CCC008F4C8C0C430D10508F08D
:100EC000C6C0C3C0CF3BD10508F0BFC0C85AD0E0F0
:100ED000CC0FDD1FCE58DC4F0990D881C02DD464D3
:100EE000B6C0C11590E5D90708F060C0C11520E46F
:100EF000D20708F058C0CE019A9581159F4108F499
:100F0000A6C0A3C0C11586E5D80718F5C11595E59B
:100F1000D90708F080C0C11524E5D20708F076C0D3
:100F20009E01237033278C2F86958695C115D34556
:100F300008F05DC0C1E0D0E002C0CC0FDD1F2A95F3
:100F4000E2F720E2829FC0011124C82BD92BDC6874
:100F50007EC0C1152AE5D20778F4C11589E5D80706
:100F600008F063C0C11598E5D90708F46EC0DC2FFE
:100F7000CC27C06FD06A6BC0CE01905681159042CD
:100F800008F063C08D2F8F710E94BF08DD27D062EB
:100F90008F71D82B5CC0C55AD0E0C056DC4FC881D9
:100FA000D0E0D06454C0DF70D06A51C0CE0174E08C
:100FB000969587957A95E1F783709C2F937021E041
:100FC00030E002C0220F331F9A95E2F73C68382BBD
:100FD000CF70C695C69580E2C89FE0011124C22B50
:100FE000D32B35C0DC2FCC27C16FD06A30C0C1E015
:100FF000D0E002C0CC0FDD1F2A95E2F720E2829FED
:10100000C0011124C82BD92BDA6821C0DC2FCC27D2
:10101000C46FD06A1CC08C2F0E94BF088F71C82F6C
:10102000D0E0DC2FCC27D06212C08C2F8F700E94B2
:10103000BF0894E0D695C7959A95E1F7CF70D0E0B8
:10104000DC2FCC27D069C82B02C0C0E0D0E0CE0195
:10105000DF91CF9108958238910569F1B0F4813321
:10106000910509F46DC048F48932910509F463C013
:101070008A32910509F469C008958533910509F410
:1010800055C089339105B9F00895833E910569F102
:1010900038F4803E9105B1F0823E910509F1089542
:1010A000863E9105A9F1873E9105B9F1843E9105EF
:1010B00009F064C023C02091300820FD4FC021FDFD
:1010C0004DC008958091300880FD44C08091310862
:1010D00080FF44C08091300884FD42C083EE4DC043
:1010E0008091300882FF38C0F5CF8091300882FDB2
:1010F00033C08091310880FD31C0ECCF8091310840
:1011000081FF32C08091300884FD2AC087EE35C04F
:101110008091300883FF26C0F5CF8091300883FD91
:1011200021C08091310881FD1FC0ECCF8091300833
:1011300085FD1CC01DC08091300885FD19C016C0FA
:101140008091300886FD16C017C08091300886FD5A
:1011500013C010C089E311C082EE0FC080EE0DC035
:1011600080E00BC086EE09C084EE07C089E205C0AE
:1011700085E303C08AE201C081E390E00895909185
:10118000300892FF0DC0282F2871283019F4877F6E
:10119000846006C0282F2471243011F48B7F88606E
:1011A00093FF0DC0282F2871283119F4877E8461A0
:1011B00006C0282F2471243111F48B7E8861209180
:1011C000310820FF0DC0382F3871383019F4877F6F
:1011D000816006C0382F3171313011F48E7F886004
:1011E00021FF0DC0282F2871283119F4877E8161D5
:1011F00006C0282F2171213111F48E7E886194FD63
:10120000877E0895EF92FF920F931F93CF93DF9302
:101210008B01682F11110AC0442329F0E82FF0E058
:10122000E452FD4F6491762F862F75C0212F30E058
:10123000E82FF0E0442321F0E452FD4FE491F0E088
:1012400046E0049FC0011124CFEFD0E0BE010E9410
:1012500084344BEA4603C001479F900D1124800F50
:10126000911D800F911D982F990F890FAE01421B80
:10127000530B4E9FD0014F9FB00D5E9FB00D1124B8
:101280009B2F189FA0011124452F55278E01041B69
:10129000150B0E9FA0010F9F500D1E9F500D112486
:1012A0007E01E81AF108E29E8001E39E100DF29E95
:1012B000100D1124212F3327C21BD30BCE9F900179
:1012C000CF9F300DDE9F300D112462307105A9F0E3
:1012D00048F46115710569F061307105C9F48B2F0F
:1012E000752F0DC06430710581F058F066307105BE
:1012F00079F47E2F8B2F932F0DC0832F7B2F9E2F62
:1013000009C08E2F7B2F952F05C08E2F732F02C003
:101310007E2F852F692FDF91CF911F910F91FF9025
:10132000EF90089541E00E940209089520E030E026
:10133000869F212D969F200D311D1124C9010895EE
:10134000BC018230910508F40895613E8EE1780772
:1013500048F49B0195E0369527959A95E1F748E08A
:10136000420F01C04FEF91E0242F30E0290F311DD3
:1013700035952795229FF001239FF00DF00D112444
:101380006E177F0718F44FEF420F04C02F3F39F05C
:1013900091E0920F491740F78FEF890F08958FEF73
:1013A0000895482F982F46FD9095E92FEF739F7071
:1013B00046FD9F5FE295EF70EE0FF0E0ED55FC4FBC
:1013C0002181299F802D212D112482958F702295B6
:1013D000207F822B3081982F930F892F47FD819595
:1013E00080580895E42FF0E0EE0FFF1FE05BFE4F02
:1013F000408134EE439F412D1124E72FF0E050E06F
:10140000445E5F4FDA01A21BB1099D01B7FF03C023
:1014100031952195310993E0220F331F9A95E1F719
:10142000AF01421B530B9A0157FF02C020E030E08E
:10143000279F212D1124722F0895E42FF0E0EE0F45
:10144000FF1FE05BFE4F408134EE439F412D11248E
:10145000E82FF0E050E0445E5F4FDA01A21BB109D3
:101460009D01B7FF03C031952195310993E0220F0B
:10147000331F9A95E1F7AF01421B530B9A0157FFB7
:1014800002C020E030E0582F259F212D1124822F0B
:101490000895E42FF0E0EE0FFF1FE05BFE4F608148
:1014A000621B0895E42FF0E0EE0FFF1FE05EFE4F99
:1014B00061A9621B08950F93CF93DF93D72FC82F95
:1014C00047FD4195E8E3F0E0CF01841B910947FD1A
:1014D0009395889FB001899F700D700D1124229FF4
:1014E000C001239F900D900D1124860F971F0E941D
:1014F000A009682F660F860F682F600F7D2F8C2F35
:10150000DF91CF910F9108950F931F93522F10E009
:10151000F801EE0FFF1FE05EFE4FE1A9F0E0B0978B
:101520009F015203D001539FB00D1124000F111FD2
:10153000F801E05BFE4F008110E000571109400305
:101540009001419F300D11242A0F3B1F37FF02C02D
:1015500021583F4F220F232F221F330B620F1F9161
:101560000F9108950F931F93522F10E0F801EE0F83
:10157000FF1FE05EFE4FE1A9F0E0B097EE0FFF1F06
:101580009F015203D001539FB00D1124000F111F72
:10159000F801E05BFE4F008110E000571109000FD9
:1015A000111F40039001419F300D11242A0F3B1F52
:1015B00037FF02C021583F4F220F232F221F330B2A
:1015C000620F1F910F9108950F931F9310E0F80180
:1015D000EE0FFF1FE05BFE4F9081905797FD9195B6
:1015E000000F111FF801E05EFE4FE1A9F0E0B09797
:1015F000DF01AA0FBB1F8D010E0F1F1F2003D0019B
:10160000219FB00D1124E8E3F0E0E91BF10997FDFB
:10161000F3959F01220F331F89010E0F1F1F4003F7
:101620009001419F300D11242A0F3B1F37FF02C04C
:1016300021583F4F220F232F221F330B620F1F9180
:101640000F9108954095282F429F412D1124842FFA
:101650000895EF92FF920F93970195E0099F200D57
:10166000311D11242F3F310519F010F02FEF30E01C
:101670002095382F320F08F43FEF832F0F91FF9002
:10168000EF900895EF92FF920F93E00EF11CF90195
:1016900037FF03C0F195E195F10924E0EE0FFF1F3C
:1016A0002A95E1F7EF3FF10519F014F0EFEFF0E0C4
:1016B0009A0157FF03C031952195310994E0220F1B
:1016C000331F9A95E1F72E173F070CF4F901EE0D41
:1016D000FF1DEF3FF10519F010F0EFEFF0E02E2FB6
:1016E0002095382F320F08F43FEF832F0F91FF9092
:1016F000EF900895EF92FF920F93972F093438F4EB
:10170000B701601B71096F3F710519F010F06FEFA1
:1017100070E0485F5F4F4131510540F0A901485FDB
:101720005F4F4131510510F06FEF70E06095482F29
:10173000460F08F44FEF842F37FF02C02D5F3F4F55
:10174000359527953595279560915305620F792F2B
:101750000F91FF90EF900895EF92FF920F939701F2
:10176000201B31092F3F310519F010F02FEF30E029
:10177000322F3095482F430F08F44FEF842F620F1C
:101780000F91FF90EF900895EF92FF920F939701C2
:10179000201B31092F3F310519F010F02FEF30E0F9
:1017A0002095382F320F08F43FEF832F0F91FF90D1
:1017B000EF900895FC019B01009721F477FF2BC067
:1017C00080E80895AC0197FF04C044275527481BC3
:1017D000590BB901640F751F37FD0CC0241B350B65
:1017E000C901A5E0880F991FAA95E1F70E949834D6
:1017F00080E20CC0CB0165E0880F991F6A95E1F784
:10180000BA01621B730B0E94983480E6861BF7FFB7
:1018100003C08195089580E00895FF920F931F9370
:10182000CF93DF93F62E172FD82FC901C72FC01BD8
:10183000BA010E94DA0B982F990F890F7C2F781B21
:10184000719F712D11246F2D8D2FDF91CF911F91DD
:101850000F91FF900895FF920F931F93CF93DF9303
:10186000F62ED72F182FC901C12FC01BBA010E9415
:10187000DA0B982F990F890FC81B2C2F219F212D30
:101880001124822F6F2D7D2FDF91CF911F910F910A
:10189000FF900895EF920F931F93CF93DF93D62F6E
:1018A000172FC82FC9010E19070FBA010E94DA0BB2
:1018B000702F781B719F712D11246D2F8C2FDF914C
:1018C000CF911F910F91EF900895EF920F931F9377
:1018D000CF93DF93D62FC72F182FC9010E19010FF1
:1018E000BA010E94DA0B081B202F219F212D112401
:1018F000822F6D2F7C2FDF91CF911F910F91EF9051
:1019000008950F93CF93DF93D72FC82FC901BA0142
:101910000E94DA0B682F600F7D2F8C2FDF91CF9103
:101920000F910895EF920F93CF93DF93D72FC82F86
:10193000C9010E19BA010E94DA0B602F681B7D2FB6
:101940008C2FDF91CF910F91EF9008951F93CF933C
:10195000DF93FC01618140815FEF560FA1E0A60F8C
:101960009FEF940F81E0840FC62FD0E0941780F48E
:1019700026E02C9FF0012D9FF00D1124E65CFB4F1B
:10198000E90FF11D208130E1230F08F42FEF2083B0
:10199000242F30E076E07C9FF0017D9FF00D112434
:1019A000E65CFB4FEF01C20FD31F788110E2710F8D
:1019B00008F47FEF7883863040F4E80FF11D7081E2
:1019C00010E1710F08F47FEF7083A83070F5B0E07C
:1019D000941780F476E07A9FF0017B9FF00D11243C
:1019E000E65CFB4FE90FF11D70811DE0710F08F4FB
:1019F0007FEF708376E07A9FF0017B9FF00D1124DA
:101A0000E65CFB4FDF01A20FB31F7C9110E1710F69
:101A100008F47FEF7C93863040F4E80FF11D70816D
:101A20001DE0710F08F47FEF7083561778F5652F6E
:101A300070E0941780F446E0469FF001479FF00D58
:101A40001124E65CFB4FE90FF11D40815DE0450F7D
:101A500008F44FEF408396E0969FF001979FF00DBA
:101A60001124E65CFB4FDF01A20FB31F2C9130E184
:101A7000230F08F42FEF2C93863040F4E80FF11D6C
:101A800020813DE0230F08F42FEF2083DF91CF91D9
:101A90001F91089545E050E06CE170E082E595E02B
:101AA0000C94653545E050E06CE170E082E595E02E
:101AB0000C948335E2E5F5E089E28083809161034F
:101AC00090916203A091630381839283A3838FE744
:101AD00084830C94520D80E008950F931F93CF934D
:101AE000DF93C82FD62F8A010E946B0D96E0C99F05
:101AF000F0011124E05EFE4FED0FF11D90819F3F3C
:101B000029F0F801E80FF11D90838F5FDF91CF91ED
:101B10001F910F910895E091B103F091B2030994E0
:101B2000E091AD03F091AE0309944F925F926F92F2
:101B30007F928F929F92AF92BF92CF92DF92EF925D
:101B40000F931F93CF93DF932C013B01FC01C081C6
:101B50008BE0C89FC02D1124DBE0DC0FD73308F0E9
:101B6000D6E360915605669580915705909158058A
:101B70000E949609182FCD1708F044C08C2E912C86
:101B8000F401E454FE4F9081F20181818923C1F177
:101B9000F401EE0FFF1FE05BFE4FC080D12CF0E799
:101BA000CF1AD108F401EE0FFF1FE05EFE4FA1A88F
:101BB000B12C80E2A81AB108CC9C9001CD9C300DCC
:101BC000300D1124AA9CC001AB9C900D900D1124E6
:101BD000820F931F0E94A009082F609153057091F6
:101BE000540580915505E12E9501A601F301099553
:101BF0000E949209462F282F672FC4010E94900D42
:101C0000CF5FB9CF81E0D63308F080E0DF91CF918C
:101C10001F910F91EF90DF90CF90BF90AF909F906A
:101C20008F907F906F905F904F9008956AE47CE072
:101C30000C94950D65E67CE00C94950D62E97CE0D2
:101C40000C94950DAF92BF92CF92DF92EF92FF92DC
:101C50000F931F93CF93DF936C015B01FC01C08155
:101C60008BE0C89FC02D1124DBE0DC0FD73308F0D8
:101C7000D6E3609156056695809157059091580579
:101C80000E949609182FCD1778F5EC2EF12CF7014C
:101C9000E454FE4F9081F6018181892319F1F70107
:101CA000EE0FFF1FE05EFE4F21A930E02052310908
:101CB000F701EE0FFF1FE05BFE4F408150E0405701
:101CC0005109609153057091540580915505012F7C
:101CD000F50109950E949209462F282F672FC70109
:101CE0000E94900DCF5FCFCF81E0D63308F080E027
:101CF000DF91CF911F910F91FF90EF90DF90CF90E8
:101D0000BF90AF9008956DE07CE00C94220E6BE2E2
:101D10007CE00C94220E6BE57AE00C94220E61E8D4
:101D20007CE00C94220EBF92CF92DF92EF92FF9252
:101D30000F931F93CF93DF938C017B01FC01C08134
:101D40008BE0C89FC02D1124DBE0DC0FD73308F0F7
:101D5000D6E36091560566956695809157059091FA
:101D600058050E949609B82ECD17F0F4CC2ED12C30
:101D7000F601E454FE4F9081F8018181892391F0AE
:101D80006091530570915405809155052B2D4C2F72
:101D9000F70109950E949209462F282F672FC60147
:101DA0000E94900DCF5FE0CF81E0D63308F080E055
:101DB000DF91CF911F910F91FF90EF90DF90CF9027
:101DC000BF90089562EF79E00C94930E6DE17AE094
:101DD0000C94930E69E47AE00C94930E62E57AE039
:101DE0000C94930E7F928F929F92AF92BF92CF925C
:101DF000DF92EF92FF920F931F93CF93DF936C01CB
:101E00005B01FC01C0818BE0C89FC02D1124DBE089
:101E1000DC0FD73308F0D6E36091560566956695DA
:101E200080915705909158050E949609182F80E4DB
:101E3000810F0E94D10990E8F92EF80E812F0E949F
:101E4000D10920E8722E780ECD1700F58C2E912C3A
:101E5000F401E454FE4F9081F60181818923A1F0C1
:101E6000609153057091540580915505E12E0C2F1A
:101E7000272D4F2DF50109950E949209462F282FF5
:101E8000672FC4010E94900DCF5FDECF81E0D63373
:101E900008F080E0DF91CF911F910F91FF90EF90BC
:101EA000DF90CF90BF90AF909F908F907F900895DC
:101EB00064E87AE00C94F20E62EB7AE00C94F20E95
:101EC00064EE7AE00C94F20EAF92BF92CF92DF9262
:101ED000EF92FF920F931F93CF93DF937C015B01EF
:101EE000FC01C0818BE0C89FC02D1124DBE0DC0F1A
:101EF000D73308F0D6E32091560530E040E050E0BB
:101F00006FEF7FEF80E090E00E94AC348901CD1745
:101F1000E8F5CC2ED12CF601E454FE4F9081F70168
:101F20008181892389F190915B05915097FD15C0BE
:101F3000292F092E000C330BF901E55AFA4F81893C
:101F4000C813F3CF220F331FF901E55AFA4F218D41
:101F5000328D2017310748F701C09801609156056E
:101F6000C9010E949609AC01609153057091540516
:101F700080915505F50109950E949209462F282F59
:101F8000672FC6010E94900DCF5FC1CF81E0D6338D
:101F900008F080E0DF91CF911F910F91FF90EF90BB
:101FA000DF90CF90BF90AF90089562E27BE00C94F9
:101FB000640F2F923F924F925F926F927F928F9217
:101FC0009F92AF92BF92CF92DF92EF92FF920F93C8
:101FD0001F93CF93DF93CDB7DEB729970FB6F89451
:101FE000DEBF0FBECDBF8B834B013A01DB011C91DD
:101FF0008BE0189F102D1124BBE0B10FB983B733CC
:1020000010F0E6E3E983F0915B05FA838981181704
:1020100008F07BC0A12EB12CF501E454FE4F908155
:10202000D40111968C91892309F46DC02090530539
:10203000309054054B80512CC501880F991FFC012D
:10204000E05BFE4FFD83EC83C501880F991F9C0167
:102050002F5A3E4F3F832E83FA814F1608F043C01C
:10206000E42CF12CAC81BD81BC91EB2FF0E0F98721
:10207000E887F701E55AFA4F818128853985281BC1
:10208000310939872887AE81BF81CC90D12C8185D9
:10209000C81AD108F901EE9F9001EF9F300D300D65
:1020A0001124CC9CC001CD9C900D900D1124820F69
:1020B000931F0E94A009082FF701EE0FFF1FE55A9A
:1020C000FA4F60915605818D928D0E9496097C0190
:1020D000960148855985B101852DF30109951B01AC
:1020E0004394582EB9CF20915505352D329F312D6F
:1020F0001124832FB1010E949209462F282F672FA8
:10210000C5010E94900D1F5F81CF81E099819633B8
:1021100008F080E029960FB6F894DEBF0FBECDBF61
:10212000DF91CF911F910F91FF90EF90DF90CF90B3
:10213000BF90AF909F908F907F906F905F904F90E7
:102140003F902F90089520915B0531E0231B08F408
:1021500020E049E25BE0BC01822F0C94D90F49E2F8
:102160005BE0BC0180E00C94D90F20915B0531E06D
:10217000231B08F420E042E45BE0BC01822F0C94B6
:10218000D90F42E45BE0BC0180E00C94D90F2091B0
:102190005B0531E0231B08F420E04AE75BE0BC016B
:1021A000822F0C94D90F4AE75BE0BC0180E00C94CD
:1021B000D90F20915B0531E0231B08F420E04CEAA5
:1021C0005BE0BC01822F0C94D90F4CEA5BE0BC01B0
:1021D00080E00C94D90F20915B0531E0231B08F4BB
:1021E00020E044EC5BE0BC01822F0C94D90F44EC5E
:1021F0005BE0BC0180E00C94D90FDF92EF92FF927C
:102200000F931F93CF93DF938C01DC018C91CBE074
:102210008C9FC02D1124DBE0DC0FD73308F0D6E310
:102220006091530570915405809155050E94920963
:10223000F62EE72ED82ECD1798F4EC2FF0E0DF0124
:10224000A454BE4F8C91D80111969C91982331F0E3
:102250002D2D4F2D6E2DCF010E94900DCF5FEBCF16
:1022600081E0D63308F080E0DF91CF911F910F918C
:10227000FF90EF90DF900895BF92CF92DF92EF92A0
:10228000FF920F931F93CF93DF937C01FC01C081DA
:102290008BE0C89FC02D1124DBE0DC0FD73308F0A2
:1022A000D6E3C0905405B09055052091560530E412
:1022B000D32E3D2D329F312D1124D32ECD1738F53D
:1022C0000C2F10E0F801E454FE4F9081F70181815A
:1022D0008923D9F0F801EE0FFF1FE05BFE4F60810C
:1022E000D69EB001112495E0759567959A95E1F712
:1022F00080915305680F7C2D8B2D0E949209462FEB
:10230000282F672FC8010E94900DCF5FD7CF81E0A3
:10231000D63308F080E0DF91CF911F910F91FF90AD
:10232000EF90DF90CF90BF900895DF92EF92FF92F1
:102330000F931F93CF93DF938C01DC01CC918BE043
:10234000C89FC02D1124DBE0DC0FD73308F0D6E3A3
:10235000E0905305F0905405D090550560915605D6
:1023600066956695669580915705909158050E94EF
:1023700096090E94D109805887FD8195880F282FE2
:102380003D2D239F212D1124822FB7010E949209F8
:10239000F62EE72ED82ECD1798F4EC2FF0E0DF01C3
:1023A000A454BE4F8C91D80111969C91982331F082
:1023B0002D2D4F2D6E2DCF010E94900DCF5FEBCFB5
:1023C00081E0D63308F080E0DF91CF911F910F912B
:1023D000FF90EF90DF900895DF92EF92FF920F93BE
:1023E0001F93CF93DF93EC01FC01E454FE4F9081E7
:1023F000692381F1D0905405009155051091530542
:10240000E12EF12C0E943F35282FC7018C549F4F9D
:1024100068E671E00E9498348E199F0997FD039633
:1024200095958795959587952370612F289F600DC9
:1024300011247D2D802F0E949209462F282F672F6F
:10244000CE01DF91CF911F910F91FF90EF90DF9020
:102450000C94900DDF91CF911F910F91FF90EF9011
:10246000DF900895CF92DF92FF920F931F93CF9347
:10247000DF938C01FC01C281C1111DC06091560522
:1024800020E1620F08F46FEF809157059091580595
:102490000E9496096AE070E00E948434892B59F505
:1024A0000E943F3566E370E00E949834F801618134
:1024B0000E94EC1120C0FC018081CBE08C9FC02DDC
:1024C00011249BE0F92EFC0EF6E3FF1510F486E3D1
:1024D000F82ED0E0CF2CD12CCC15DD053CF4F80142
:1024E0006181CE010E94EC112196F6CFC1E0F5E3A7
:1024F000FF1508F4C0E08C2FDF91CF911F910F9151
:10250000FF90DF90CF900895E091AF03F091B0037A
:1025100009942F923F924F925F926F927F928F9287
:102520009F92AF92BF92CF92DF92EF92FF920F9362
:102530001F93CF93DF93CDB7DEB72B970FB6F894E9
:10254000DEBF0FBECDBF3C01DC018C910BE0809F54
:10255000002D1124BBE0B00FB987B13310F0E0E3D8
:10256000E987D30112968C91882361F040E060E006
:1025700080E00E94841280E3EAE3F4E0DF011D9230
:102580008A95E9F710E0F985EF2FF0E0FB87EA87FD
:1025900096E0492ECE0101965C012AEA222E8A8518
:1025A0009B85081719070CF065C0480197E0892240
:1025B0009924780183E0F594E7948A95E1F7489CA3
:1025C000F001499CF00D1124E65CFB4FEE0DFF1D60
:1025D0005080A5016E2D882D0E946D0D382E65014D
:1025E0008C2D8A19831508F032C0D601EC91F0E0E9
:1025F000E454FE4F9081F3018181892321F1252D3F
:1026000035E5231B08F420E0622D621B7091540510
:10261000222D352D230F08F42FEF3091550582E040
:10262000289F200D11242E5F239F212D1124822FFE
:102630000E949209462FD6019C91282F672F892F3F
:1026400090E00E94900DBFEFCB1ADB0AC9CF252D79
:1026500031E0231B08F420E0489CC001499C900D08
:102660001124865C9B4FFC01EE0DFF1D20830F5F44
:102670001F4F95CF81E09985903308F080E02B962D
:102680000FB6F894DEBF0FBECDBFDF91CF911F9183
:102690000F91FF90EF90DF90CF90BF90AF909F9001
:1026A0008F907F906F905F904F903F902F90089504
:1026B0006F927F928F929F92AF92BF92CF92DF9252
:1026C000EF92FF920F931F93CF93DF93CDB7DEB7B7
:1026D00028970FB6F894DEBF0FBECDBFDC0112966F
:1026E0008C91882371F040E060E080E00E948412C9
:1026F00080E3EAE3F4E0DF011D928A95E9F71092A6
:102700000C048AE3E82E84E0F82E812C77247A9456
:1027100090EDC92ED12C20EC622E3FE2A32EB12CDD
:102720008701912C91100CC080910C04811108C07C
:102730000E943F35853595401CF4F701708206C034
:10274000D8018C9181508E3F08F48C93AE014F5F7D
:102750005F4F682D892D0E946D0D882309F1F801C6
:102760002081E981213D70F030E0205D3109629ED9
:10277000C001639E900D1124B5010E948434262F60
:102780004FEF0AC0FFEF2F9FC0011124B6010E9436
:102790008434462F20E060E08E2F90E00E94900D60
:1027A00093940A5F1F4F28E09212BCCF83943FEFAF
:1027B000E31AF30A86E08812B3CF80910C048F5F8E
:1027C0008D3120F110920C042EE534E087E04EEFBD
:1027D000AAE3B4E0F90196E0873041F49A965C915F
:1027E0009A975F3F19F49A964C939A9750815F3F5E
:1027F00011F4408356839150319611969111ECCF8C
:102800008150265031098111E3CF02C080930C041E
:1028100080E028960FB6F894DEBF0FBECDBFDF91E3
:10282000CF911F910F91FF90EF90DF90CF90BF90CD
:10283000AF909F908F907F906F900895AF92BF92CE
:10284000CF92DF92EF92FF920F931F93CF93DF937C
:10285000CDB7DEB728970FB6F894DEBF0FBECDBF59
:102860008B01FB018281882349F0AE014F5F5F4FEE
:10287000608181810E946D0DD82E01C0D12CC09045
:102880000D04ED2CF12CC7018C0D911D099764F1FD
:1028900088E090E05C01AE18BF08B701625F7B4F33
:1028A000A5018EE094E00E945C35B7016A5E7B4F23
:1028B000A50186E194E00E945C35A501440F551FF7
:1028C000B701660F771F6A5D7B4F86E294E00E9436
:1028D0005C35B701625E7B4FA5018EE194E00E94FA
:1028E0005C35CA94C0920D04F0900D04DE0111967F
:1028F00040E0842F8F0DD41609F190E05D91252FD3
:1029000030E0BC01635F7B4FF901EE0FFF1FE05B1E
:10291000FE4FE080FB01E182220F331FF901E05EF0
:10292000FE4F21A9FB012187518B880F991FFC01C4
:10293000E35FFB4F128E118E4F5FDBCF80930D0450
:10294000809152058C7F8C3419F4C8010E94A60C2A
:1029500081E028960FB6F894DEBF0FBECDBFDF91A1
:10296000CF911F910F91FF90EF90DF90CF90BF908C
:10297000AF90089508950C94BA140E94BB140C945F
:1029800075054F925F926F927F928F929F92AF9256
:10299000BF92CF92DF92EF92FF92CF93DF9360913D
:1029A00036047091370480913804909139040E9464
:1029B0005F2D6B017C010E94442D4B015C016093F3
:1029C0003604709337048093380490933904A091AF
:1029D0000D04EDE0F4E08A2F90E04FEF5FEF60E050
:1029E00070E04C195D096E097F09A91799F0218DD6
:1029F000328D2901612C712C44155505660577052A
:102A000010F4815004C02C0D3D1D328F218F9F5F2B
:102A10003296EBCF80930D04D0916A04D11108C097
:102A2000C09152058C2F837019F0C695C69501C0D0
:102A3000C0E0809174028130E9F038F0823009F40E
:102A4000EFC0833009F4F9C009C110927502809279
:102A5000570590925805A0925905B0925A0589E2FF
:102A6000EDE0F4E0ABE5B5E001900D928A95E1F779
:102A700081E0E0C080917802C8130DC0209152051A
:102A8000237030E04091790250E081E0241735074F
:102A900019F480E001C081E08170809377024C2FAF
:102AA00050E04032510508F0A9C0FA01EA5AFF4F40
:102AB0000C94CB34882309F4A1C040E060E080E0AE
:102AC0000E9484129BC085E792E00E94FD1097C08F
:102AD00085E792E00E943C1192C085E792E00E9457
:102AE00095118DC085E792E00E94E20E88C085E7CF
:102AF00092E00E94E60E83C085E792E00E94830E7A
:102B00007EC085E792E00E94870E79C085E792E05B
:102B10000E94160E74C085E792E00E941A0E6FC0E4
:102B200085E792E00E94EA0E6AC085E792E00E9483
:102B3000EE0E65C085E792E00E948B0E60C085E7CF
:102B400092E00E948F0E5BC085E792E00E941E0E0D
:102B500056C085E792E00E94580F51C085E792E089
:102B60000E945C0F4CC085E792E00E94600F47C056
:102B700085E792E00E94321242C085E792E00E940F
:102B800089123DC085E792E00E94581338C085E75E
:102B900092E00E94D50F33C085E792E00E94A31017
:102BA0002EC085E792E00E94AF1029C085E792E031
:102BB0000E94B51024C085E792E00E94C1101FC09A
:102BC00085E792E00E94C7101AC085E792E00E9454
:102BD000D31015C085E792E00E94D91010C085E798
:102BE00092E00E94E5100BC085E792E00E94EB1096
:102BF00006C085E792E00E94F71001C080E0909146
:102C000075029F5F90937502811128C082E08093C6
:102C1000740280917702811121C0CC2351F01EC033
:102C2000C0937802809152058370809379020E944C
:102C30008B0D83E08093740211C0609157057091F1
:102C400058058091590590915A050E945F2D603179
:102C500071058105910510F010927402D11110C018
:102C6000DF91CF91FF90EF90DF90CF90BF90AF902A
:102C70009F908F907F906F905F904F900C94BD14B9
:102C8000DF91CF91FF90EF90DF90CF90BF90AF900A
:102C90009F908F907F906F905F904F900895E091FC
:102CA000AB03F091AC03099510925B05E4E7F5E006
:102CB0008FEF9FEF8193919325E0E438F207D1F7EE
:102CC00010920D04E6E2F4E08FEF9FEF8193919371
:102CD00024E0E633F207D1F70E94472B811104C0AC
:102CE0000E94EC2B0E945A0D0E944A0D80915205C1
:102CF0008C7F11F40C945A0D0895CF93C82F88231C
:102D000029F040E060E080E00E948412C0936A04F1
:102D1000CF9108952091520591E09227909352050A
:102D20001092740281110C94520D089581E00C945C
:102D30008A1690915205937091F0811102C09460AF
:102D400007C0803210F09C6703C0880F880F982B53
:102D5000909352051092740261110C94520D0895D3
:102D600061E00C949916682F90915205969596956E
:102D70009F5F903210F4892F01C081E00C94991666
:102D800081E00C94B316682F909152059695969514
:102D9000915011F0892F01C08FE10C94991681E0B8
:102DA0000C94C31690915205937061F08093530573
:102DB00060935405473908F046E9409355052111C1
:102DC0000C94520D0895A2E5B5E01196EC9111977F
:102DD000F0E0282F13964C91139712966C91CF0127
:102DE00008960C94D21681E00C94E316A2E5B5E0A7
:102DF0001196EC911197F0E0282F13964C911397B0
:102E000012966C91CF0108970C94D21681E00C9425
:102E1000F616E2E5F5E0628128E0620F08F46FEF54
:102E20009181282F4381892F90E00C94D21681E064
:102E30000C940917E2E5F5E0628128E0621B08F4D2
:102E400060E09181282F4381892F90E00C94D21665
:102E500081E00C941A17E2E5F5E0438128E0420F87
:102E600008F44FEF9181282F6281892F90E00C9414
:102E7000D21681E00C942B17E2E5F5E0438128E0BF
:102E8000421B08F440E09181282F6281892F90E055
:102E90000C94D21681E00C943C17209156053AE030
:102EA000230F08F42FEF2093560581110C94520D37
:102EB000089581E00C944D17209156053AE0231BAC
:102EC00008F420E02093560581110C94520D0895CA
:102ED00081E00C945C170895FC01EE0FFF1F8E0F2C
:102EE0009F1FFC01EC57FA4F6183408322830895B2
:102EF000E4E8F5E096E0E632F90729F081836083A3
:102F000042833396F7CF089566E370E084E895E056
:102F10000C94F017882311F0FA0101C0FB01099409
:102F20000F931F93CF93FB01C281CC2309F450C0B0
:102F30008C010E94502A8272F801E25CFC45E43167
:102F4000F10508F048C0EA58FF4F0C94CB340E94BA
:102F5000961640C04FEC56E160EC76E104C040ECC0
:102F600056E16FEC76E10E948A1734C046E057E1E3
:102F700063EF76E1F8CF43EF56E166E077E1F3CF18
:102F800048E257E167E177E1EECF47E157E168E2D8
:102F900077E1E9CF4AE457E169E377E1E4CF49E338
:102FA00057E16AE477E1DFCF48E657E169E577E189
:102FB000DACF49E557E168E677E1D5CF81E005C092
:102FC00083E003C08AE001C08DE00E94B01602C019
:102FD000C1E001C0C0E08C2FCF911F910F910895E7
:102FE000539A2BB1277F3BB138604FB7F894FC015F
:102FF000CB01880F991F680F791F6E0F7F1FE6178F
:10300000F70789F0819198E03BB9000000C087FF85
:103010002BB9880F000000C000C000C02BB900C051
:103020009A9591F7ECCF4FBF8FE594E00197F1F7B8
:1030300000C000000895EF92FF920F931F93CF936B
:10304000DF93EC017B0164E670E088E70E94B51F26
:103050008C01EC0EFD1ECE15DF0561F017FD0AC0D8
:10306000FE01849164E670E00E940C208C012196A0
:10307000892B89F30E949020C801DF91CF911F9185
:103080000F91FF90EF9008950895E6E2F6E080E05A
:1030900092E0DF019C011D9221503040E1F7F09356
:1030A0002B08E0932A088FEF9FEF90939104809371
:1030B000900408950E94441880938C0480FD02C0FF
:1030C00080E801C080E280938B040E94AF1F6DE016
:1030D00070E083EF93E00E941B18892B11F080E0D1
:1030E000089580918C0463E070E081FD03C080EF5F
:1030F00093E002C08DEE93E00E941B18892B79F7B4
:103100006DE070E080EE93E00E941B18892B39F788
:103110000E94442DDC01CB01805A9541AF4FBF4F37
:103120008093260890932708A0932808B093290835
:103130000E94451881E080938F0480938E04109242
:103140008D04089520918B0436E0839FC0011124E3
:10315000629F800D911D1124811522E0920714F0C9
:1031600080E090E08A5D994F90932B0880932A0825
:1031700008950E94442DDC01CB01805A9541AF4F48
:10318000BF4F8093260890932708A0932808B093F8
:10319000290880918E0481110BC062E070E08EEDF1
:1031A00093E00E941B18892B19F481E080938E0410
:1031B00080918E0408956F927F928F929F92AF922A
:1031C000BF92CF92DF92EF92FF920F931F93CF9314
:1031D000DF9320919004309191042115310509F479
:1031E000D4C080918D048111D0C061E070E0082FBF
:1031F00010E03B01082E02C0660C771C0A94E2F72F
:10320000A90146215721452B11F48F5FF0CF9091F2
:103210008C04980165E0220F331F6A95E1F790FD59
:1032200012C08295880F807680937C02220F232F14
:10323000221F330B319520937F02815E80937D02A4
:103240001092800212C045E0369527954A95E1F725
:10325000220F220F220F20937C0210927F02295FFF
:1032600020937D0283E08093800224E630E047E0F3
:1032700050E06AE772E088E70E943C20892B09F061
:1032800084C080918C0480FD23C0A80195E0440F88
:10329000551F9A95E1F74A5D594F04E610E020E288
:1032A00030E060E488E70E946320892B09F06DC05C
:1032B0000E94B918E301C095D09580919004909137
:1032C0009104C823D923D0939104C09390045DC086
:1032D00080E2EBE6F4E0DF011D928A95E9F785E0F4
:1032E000000F111F8A95E1F7A7EBB3E043EB53E022
:1032F000992493942D91EA018991AE01B801680F48
:10330000711D6A5D794F30E025593B4FF90197E017
:103310007F01E21AF30AA92C01C0AA0CEA94EAF789
:103320007B01B12CE70189917E018A21892E8B18BE
:10333000D82DD770CD2E0D2E000CDD08C82F01C062
:10334000CC0FDA95EAF7D194C194D108D7E0CD2219
:10335000DD2401C08695CA94EAF78C2BD0808D2994
:103360008083B39488E0B812DDCF915031969F3FAF
:1033700079F6C3E0AB3BBC0709F0BCCF04E610E034
:1033800020E230E04BE654E08CCFDF91CF911F91EB
:103390000F91FF90EF90DF90CF90BF90AF909F90F4
:1033A0008F907F906F90089580918E04882369F0AC
:1033B00062E070E08CED93E00E941B18892B19F0FD
:1033C00080918E04089510928E0490918E0481E075
:1033D0008927089508950F931F9380918F04882360
:1033E00011F160E080E00E94A2180E94EA190E9498
:1033F000DB1880918E048823B1F00E94442D009147
:103400002608109127082091280830912908DC010E
:10341000CB01801B910BA20BB30BB7FD04C01F9116
:103420000F910C94D4191F910F910895AF92BF92F0
:10343000CF92DF92EF92FF920F931F93CF93DF9380
:103440007C015B01C42FD22FFC0182818823F9F01B
:10345000409394040E94382D909393048093920497
:1034600080E28C0F883008F06EC0C77081E001C028
:10347000880FCA95EAF7DF91CF911F910F91FF90C6
:10348000EF90DF90CF90BF90AF900C94702280911E
:103490009404481335C080919204909193040E9443
:1034A000502D6C01B701C5010E949527C816D90699
:1034B00038F510E21D0FCD17B9F080E28C0F88307F
:1034C00040F4C77081E001C0880FCA95EAF70E94F6
:1034D0007722183058F581E09D2F977001C0880F32
:1034E0009A95EAF70E947022802F0E945D22183080
:1034F00050F5D77081E001C0880FDA95EAF70AC06D
:1035000080E28C0F8830F8F4C77081E001C0880F2A
:10351000CA95EAF7DF91CF911F910F91FF90EF903D
:10352000DF90CF90BF90AF900C947722802FDF91E7
:10353000CF911F910F91FF90EF90DF90CF90BF90B0
:10354000AF900C945D22DF91CF911F910F91FF906E
:10355000EF90DF90CF90BF90AF9008950F939C01B4
:10356000CB01233F4CE5340731F188F4283DFCE5DD
:103570003F07D9F0293D4CE5340779F1273D3C451B
:10358000A9F506E221EE41EE67ED7CE52BC0253F73
:10359000FCE53F07E1F0A8F0263F3C4539F507E29E
:1035A00025EE46EE66EF7CE51DC007E225EE45EE12
:1035B00068ED7CE517C006E221EE40EE63EF7CE5A6
:1035C00011C007E225EE44EE64EF7CE50BC006E295
:1035D00021EE42EE65EF7CE505C008E221E045EE14
:1035E00069ED7CE50E94161A80E008C0FC0182812A
:1035F000882319F01092940401C081E00F9108957E
:10360000CF93DF93EC01FB018281882309F41FC172
:10361000C230FCE5DF0708F41BC1C6319CE5D907C1
:1036200038F09E012A5F3C452930310508F010C171
:103630000E945F2B9093310880933008C031ECE5F5
:10364000DE0709F4C3C008F041C0C8308CE5D807D4
:1036500009F49AC0F0F4C430ECE5DE0709F487C041
:1036600068F4C2308CE5D80709F477C0C330DC4574
:1036700009F0E3C080913008826076C0C630ECE586
:10368000DE0709F46EC008F07BC0809130088860C6
:103690006BC0CC308CE5D80709F485C068F4CA301B
:1036A000ECE5DE0709F474C008F079C00E94F62446
:1036B00080913008806858C0CE308CE5D80709F476
:1036C00076C008F07FC0809130088BC0CB3FECE51E
:1036D000DE0709F44FC018F5C3318CE5D80709F4AB
:1036E0007DC078F4C131ECE5DE0709F473C0C23166
:1036F000DC4509F0A2C00E94F624809130088F7743
:1037000033C0C5318CE5D80709F472C008F486C00F
:10371000CA3FDC4509F091C0809131083EC0CF3FDF
:10372000FCE5DF0709F45FC058F4CD3F9CE5D907FD
:1037300009F444C008F43FC08091310882602DC074
:10374000C130FDE5DF0709F475C008F45DC0C23083
:10375000DD4509F072C080E06EC080913008816064
:1037600003C08091300880618093300866C08091EA
:10377000300811C0809131088260809331085DC0AB
:10378000809130088062F0CF809130088064ECCF67
:103790008091300888608460E7CF8160EECF8091AF
:1037A00030088E7FE1CF809130088D7FDDCF809112
:1037B0003008877FD9CF8091310818C080913108B7
:1037C0008D7FDBCF809130088F7ECECF8091300807
:1037D0008F7DCACF809130088F7BC6CF8091300813
:1037E000877F8B7FC1CF809131088D7F8E7FC5CF42
:1037F0008091300882FB222720F991E0922790FBEC
:1038000082F990FB83F9B0CF80913108982F909581
:1038100091708E7F892B90FB81F9AFCF0E94F624A7
:103820008091300887FB222720F991E0922790FBB6
:1038300087F99ACF81E00E94EE2B80913008909119
:1038400031080E94702B0E94F62480E001C081E0C4
:10385000DF91CF910895CF93DF9386319C4541F559
:10386000EB010E94502A982F8A8120918202309188
:103870008302882379F09A7A81E009F480E08093CA
:103880009504911102C069E201C065E3C9010E947B
:10389000892C0AC080919504811102C069E201C09F
:1038A00065E3C9010E94942C0E94942A80E001C023
:1038B00081E0DF91CF910895CF93DF93EC0181E018
:1038C000898B8F810E94532A88850E94662A0E94D4
:1038D000942AEA81FB81CE010696309729F06C8903
:1038E0007D89DF91CF910994DF91CF910895CF9396
:1038F000DF93FC012081223041F4FB01EC01828145
:1039000093810E942A0681E08B87DF91CF910895F1
:10391000FC018081813021F4FB018081918105C00F
:10392000823029F4FB01828193810C942A06089548
:10393000FC018081813021F4FB018081918105C0EF
:10394000823029F4FB01828193810C944006089512
:10395000EF92FF920F931F93CF93DF93FC01228589
:10396000211136C0EC01E380F480F7E5FF1A26E16F
:103970002E9DC0012F9D900D1124DC01AE50BE4F35
:103980001496ED91FC91159788509E4F309729F031
:1039900054966D917C915597099586E18E9D800195
:1039A0008F9D100D11240E501E4FF80187810E942B
:1039B000592AF80180850E946C2A0E94942A188254
:1039C00019861B861E821D821092970410929604FF
:1039D000DF91CF911F910F91FF90EF900895DF92AB
:1039E000EF92FF920F931F93CF93DF93FB012281FE
:1039F0002223A1F1209181022F3F81F18C01C2EF9E
:103A0000D1E0E12CF12CDD24D39480918102082EA9
:103A1000000C990B8E159F050CF18E818823C9F03F
:103A200089859A858017910739F480919604909141
:103A300097040817190769F0DF861C870B878989A7
:103A4000811103C0CE010E945C1CCE0106960E942B
:103A5000A81CFFEFEF1AFF0A6696D7CFDF91CF9130
:103A60001F910F91FF90EF90DF900895EF92FF92DA
:103A70000F931F93CF93DF939C0137552F3F310551
:103A800011F008F047C040918102042E000C550B44
:103A90004217530714F420938102FB017C018281B9
:103AA00096E1929F8001939F100D1124E801CE5062
:103AB000DE4F888B92818E81992311F1FA86E986F7
:103AC0008F5F8E830E94382D9E878D870E94792A72
:103AD0008F830E94502A88870E94632A9885892BA9
:103AE0008887E881F981C80188509E4F309719F086
:103AF0006C897D890995F0929704E09296040AC03A
:103B0000882341F08989882329F0C80188509E4F75
:103B10000E94A81C81E0DF91CF911F910F91FF902F
:103B2000EF900895CF92DF92EF92FF920F931F9341
:103B3000CF93DF93809181028F3F09F442C0F12C33
:103B400086E1E82E0F2D10E080918102082E000CF6
:103B5000990B80179107ACF1E09EF001E19EF00D0A
:103B60001124EE50FE4FC288D388C114D10439F419
:103B700060E070E0818592850E9495276C01E09E4F
:103B8000E001E19ED00D1124CE50DE4F8E818823BE
:103B9000B1F08D859E850E94502DC816D90678F407
:103BA0008989811103C0CE010E945C1CE09EC00186
:103BB000E19E900D112488509E4F0E94A81CF39402
:103BC000C1CFDF91CF911F910F91FF90EF90DF90C8
:103BD000CF9008958EE14A9B02C08150E1F74A9B45
:103BE000FECF08955A9880E28A95F1F75A9A08957F
:103BF000FC012AE02A95F1F790E020E080E031E036
:103C0000261779F040E14A95F1F7880F4A9B02C0E8
:103C10008160932700C0000040E14A95F1F72F5FD3
:103C2000EFCF20E12A95F1F729B100C0000030E183
:103C30003A95F1F722FB222720F992272081920F53
:103C400090830895EF92FF920F931F93CF93DF938A
:103C50001F92CDB7DEB719828C017C01E60EF11CF4
:103C60000E151F0559F00E94EA1D68E0CE0101966D
:103C70000E94F81DF80181938F01F2CF81E09981B4
:103C8000911180E00F90DF91CF911F910F91FF90E4
:103C9000EF90089590939A04809399046093980408
:103CA000529A5A9A089590939A0480939904609333
:103CB000980452985A9AEA9AE9E6F0E080818F7C5B
:103CC00080830895615091E001C0990F6A95EAF7E9
:103CD00020E031E0992361F0492F482319F05A9AE6
:103CE000232701C05A9840E24A95F1F79695F2CF02
:103CF000222311F05A9A01C05A9880E28A95F1F76E
:103D00005A980895FF920F931F93CF93DF93EC017E
:103D10008C01060F111DC017D10741F0F9900E94C8
:103D2000F21D68E08F2D0E94621EF5CFDF91CF91CA
:103D30001F910F91FF9008951F920F920FB60F924F
:103D400011240F931F932F933F934F935F936F9380
:103D50007F938F939F93AF93BF93EF93FF93CF93F3
:103D6000DF931F92CDB7DEB719820E94EA1D67E08C
:103D7000CE0101960E94F81D382F3695369536955E
:103D8000932F96959570232F2570920F292F2370CE
:103D9000969596958770920F891348C089818111F5
:103DA00045C080919804831708F440C080E18A954B
:103DB000F1F75A9A529AA2E0AA95F1F700C0009141
:103DC000990410919A04B8E03B9F000D111D112435
:103DD0005A98F8016581662321F0868197810E94B7
:103DE000821E0E94F21DF0E1FA95F1F75A9852985E
:103DF0005A9A80E18A95F1F7D80112966C91129740
:103E0000662369F013968D919C9114970E94221E4F
:103E1000D801ED91FC91811105C082E004C0D80168
:103E2000ED91FC9188E080830E94EA1D0F90DF9164
:103E3000CF91FF91EF91BF91AF919F918F917F9122
:103E40006F915F914F913F912F911F910F910F9023
:103E50000FBE0F901F9018950F931F93CF93DF9372
:103E60002091980430E0281739070CF471C09C01A8
:103E700093E0220F331F9A95E1F7C0919904D091F6
:103E80009A04C20FD31FF894529A5A9845E04A9563
:103E9000F1F70000982F969595708570890F982FEF
:103EA000937086958695890F8901082B0E94F21DD3
:103EB00084E08A95F1F700C067E0802F0E94621EBF
:103EC00040E14A95F1F752985A9A4A9902C000C0C7
:103ED000FCCF87E090E04A9B0EC0019751F4529AC4
:103EE0005A9AE881F98181E08083789481E090E0BA
:103EF00031C000C0F0CF6D81662381F08E819F813B
:103F00000E94221E81110AC0529A5A9AE881F981B0
:103F100082E08083789482E090E01CC00E94EA1DD9
:103F200080E28A95F1F75A98529A40E14A95F1F762
:103F30006A81662321F08B819C810E94821E0E94EF
:103F4000F21DE881F9811082789480E090E002C04F
:103F500084E090E0DF91CF911F910F91089510922E
:103F6000B9008CE08093B8000895EF92FF920F9310
:103F70001F93CF93DF93182FEB011092BC0084EABC
:103F80008093BC000E94382D7C018091BC0087FD8D
:103F90000EC0CF3F8FEFD807C1F30E94382D8E1986
:103FA0009F098C179D0788F38EEF9FEF2EC080919D
:103FB000B900887F883041F08091B900887F8031D6
:103FC00019F08FEF9FEF21C01093BB0084E880931E
:103FD000BC000E94382D8C018091BC0087FD0CC074
:103FE000CF3F8FEFD807C1F30E94382D801B910B74
:103FF0008C179D0788F3D8CF8091B900887F8831CE
:1040000011F08034F1F680E090E0DF91CF911F91C4
:104010000F91FF90EF9008950F931F93CF93DF932D
:10402000EB018093BB0084E88093BC000E94382D94
:104030008C018091BC0087FD0EC0CF3F8FEFD80769
:10404000C1F30E94382D801B910B8C179D0788F3BC
:104050008EEF9FEF0CC02091B900287F81E090E0A7
:10406000283211F480E090E0919581959109DF91DB
:10407000CF911F910F910895CF92DF92EF92FF920F
:104080000F931F93CF93DF936B018A017901B901DD
:104090000E94B51FE6010C0D1D1DC017D10761F46C
:1040A00024E92093BC00DF91CF911F910F91FF90E5
:1040B000EF90DF90CF90089597FDF2CFB7018991EF
:1040C0000E940C20EACFCF92DF92EF92FF920F93E3
:1040D0001F93CF93DF93C62F6A017901B8010E9425
:1040E000B51F97FD11C0B8018C2F0E940C20E6016E
:1040F000EC0CFD1CCE15DF0539F097FD05C0B801AD
:1041000089910E940C20F6CF24E92093BC00DF9116
:10411000CF911F910F91FF90EF90DF90CF90089576
:1041200084E98093BC0008959093A00480939F0439
:104130000895E0919F04F091A004309721F0019040
:10414000F081E02D099480E00895E0919F04F091C2
:10415000A004309799F020918E02222359F02091EB
:10416000300827FF07C0DC012C9111962C93119782
:1041700025E02C930280F381E02D0994089520918D
:104180009D0430919E042817390771F090939E0486
:1041900080939D04E0919F04F091A004309721F05A
:1041A0000680F781E02D0994089520919B043091B9
:1041B0009C042817390771F090939C0480939B040A
:1041C000E0919F04F091A004309721F00084F185E4
:1041D000E02D0994089585B7806885BF85B780680C
:1041E00085BF089508950C94F2200C94F3200C944C
:1041F000F2200C94F2200E94EB200E94F7200C94F5
:10420000F52081E008950C9401210E942F2D0E9439
:104210002C0380E00E945A180E94B22D0C94F920C1
:104220009F92AF92BF92CF92DF92EF92FF920F9345
:104230001F93CF93DF93CDB7DEB72A970FB6F894CD
:10424000DEBF0FBECDBF0E944C04C82E0E940321CA
:10425000811111C08FEF89838A831B820E94382DC0
:104260008160782F9D838C8349815A816B818D81F8
:104270000E94AF2140C082EAA82E84E0B82E00E060
:1042800010E0902E802F0E94C204E82EF501D190FC
:104290005F01D82631F40F5F1F4F0830110589F7F1
:1042A000D9CF80912E0581FD0E94C80480E0FF24B3
:1042B000F3949D2D9F21D1F08E839F82EF2081E08A
:1042C00009F480E088870E94382D8160782F9A87D2
:1042D00089874E815F8168858A850E94AF21F801B8
:1042E000EE55FB4F8081F826F08205C08F5FFF0CF2
:1042F0008630F9F6D0CF0E94EB19C1100E94B91890
:104300000E9499209091A1048917B9F00E949920E8
:104310008093A1042A960FB6F894DEBF0FBECDBFDE
:10432000DF91CF911F910F91FF90EF90DF90CF9091
:10433000BF90AF909F900C941E072A960FB6F894EA
:10434000DEBF0FBECDBFDF91CF911F910F91FF90C8
:10435000EF90DF90CF90BF90AF909F900895CF9354
:10436000DF93CDB7DEB72B970FB6F894DEBF0FBE45
:10437000CDBF4F83588769877A878B87DE01119677
:1043800086E0FD0111928A95E9F785E0FE013796F6
:1043900001900D928A95E1F749815A816B817C8168
:1043A0008D819E810E9498272B960FB6F894DEBFD0
:1043B0000FBECDBFDF91CF910895FC018081918127
:1043C0000E94112A0895CF93882309F448C0C82F6A
:1043D0008CEF8C0F813AD0F46C2F809182029091F7
:1043E00083020E94092C882349F06C2F809182025D
:1043F000909183020E94942C0E94942A6C2F8091A9
:104400008202909183020E94892C0CC080E28C0F62
:10441000883058F4C77081E001C0880FCA95EAF768
:104420000E94532ACF910C94942AEBE5EC0FE330D1
:1044300040F4F0E0E751FC4F808190E0CF910C9484
:10444000BF20C85AC73158F4EC2FF0E0EE0FFF1F21
:10445000E554FC4F80819181CF910C94D520CF9170
:104460000895882349F1682F8CEF860F813A38F43C
:1044700080918202909183020E94942C0CC080E271
:10448000860F883050F4677081E001C0880F6A950C
:10449000EAF70E94592A0C94942A8BE5860F833000
:1044A00020F480E090E00C94BF20685A673120F43B
:1044B00080E090E00C94D5200895CF93C82F0E94FF
:1044C000E321C93349F42FEF87EE93E02150804078
:1044D0009040E1F700C000008C2FCF910C94312266
:1044E000882321F00E94532A0C94942A089588234B
:1044F00021F00E94592A0C94942A0895CF92DF92B9
:10450000EF92FF920F931F93CF93DF937C01D62FEF
:10451000C72FFC01058102950F70128111110E94B5
:10452000732A0E94492A882399F0112389F08C2F3D
:10453000807F803421F080E28D0F883048F082E067
:104540000E94DE2A0E94492A91E0D82ED92601C075
:10455000D12CCC2EC2948FE0C8228C2D90E08C30D0
:10456000910508F0ABC1FC01E657FF4F0C94CB342A
:104570008C2F807FCF70882311F0C295C07F1123CC
:1045800099F0CC2309F486C180E28D0F883010F0B9
:10459000D11104C08C2F0E94532A03C08C2F0E947B
:1045A000662A0E94942A76C18D2F0E943122CC2344
:1045B00009F484C180E28D0F883010F0D11104C05D
:1045C0008C2F0E94592A03C08C2F0E946C2A0E94B3
:1045D000942A74C18C2F807FCF70803211F0C295E5
:1045E000C07FDD2319F0D130C9F022C0112371F052
:1045F000002341F0013031F40E94792A8C2B0E9473
:10460000812A5CC10E94792A8C2B1DC0002319F0DD
:10461000013009F453C10E948A2A25C0112321F0D8
:10462000063008F04BC10EC0053008F047C11BC072
:10463000112361F0002331F0F701858180FF2AC149
:104640008F7085838C2F0E94702238C1002359F00F
:10465000D93309F030C1FFEF07EE13E0F15000400D
:104660001040E1F726C18C2F0E94772227C18C2FA2
:1046700086958695837019F0813061F01FC11123F2
:1046800021F08D2F9C2F937002C080E090E00E945B
:10469000BF201CC1112321F08D2F9C2F937002C0CD
:1046A00080E090E00E94D52011C18C2F837009F02A
:1046B00047C0111107C12D2F229526952770220F73
:1046C000220F6D2F6F70862F90E0A0E0B0E0022ED9
:1046D00004C0880F991FAA1FBB1F0A94D2F7D4FFEA
:1046E00010C04FE050E060E070E004C0440F551F80
:1046F000661F771F2A95D2F7409550956095709563
:1047000003C040E050E0BA01C695C695C3708A0167
:104710009B01082B192B2A2B3B2BC901B801C23056
:1047200049F058F4C13019F00E946C28CBC00E94A7
:104730005A28C8C00E947E28C5C00E945828C2C0FE
:10474000112319F08C2F817001C08695882309F4FC
:10475000B9C02D2F229526952770220F220F6D2F7D
:104760006F70862F90E0A0E0B0E0022E04C0880FAA
:10477000991FAA1FBB1F0A94D2F7D4FF10C04FE0A5
:1047800050E060E070E004C0440F551F661F771FC3
:104790002A95D2F7409550956095709503C040E0FA
:1047A00050E0BA01C695C695C3708A019B01082BDB
:1047B000192B2A2B3B2BC901B801C23049F058F400
:1047C000C13019F00E9451297DC00E943F297AC052
:1047D0000E94632977C00E94922874C0CF70112371
:1047E00039F08C2F0E94D8288D2F0E9470226AC029
:1047F0008D2F0E9477228C2F0E94F92863C0D23F10
:1048000001F128F4D03F41F0D13FA1F03FC0D33FA8
:10481000F9F0D43F39F13AC0112341F0053008F0E6
:104820004DC08C2F8F710E941E2948C0063008F0A1
:1048300045C0F7CF112339F08C2F8F710E94D828F3
:104840003DC01123C9F38C2F8F710E94F92836C007
:10485000112329F08C2F8F710E94C3282FC00E9432
:104860009E282CC0112349F0CF718C2F0E94D8288C
:1048700063E08C2F0E94C92A21C081E00E94DE2AB9
:104880000230E0F082E00E94DE2A18C0112331F0ED
:10489000002391F28D2F0E94E32110C0002399F292
:1048A000D93349F41FEF27EE33E011502040304058
:1048B000E1F700C000008D2F0E94312288EF8C0D9F
:1048C000843020F40E9499200E941E07DD20C9F048
:1048D0000E94452A80FD15C0F70112820E943F2ADE
:1048E0000E94D828C7010E94A2240E943F2ADF917B
:1048F000CF911F910F91FF90EF90DF90CF900C948C
:10490000F928DF91CF911F910F91FF90EF90DF90E9
:10491000CF9008950F931F93CF93DF93EC0168819D
:1049200079818A810E941C2A8C010E9475290E942B
:104930004628B801CE010E947E22DF91CF911F91BF
:104940000F910895CF93DF93EC01988189812B819A
:104950003C81232B31F08F3F31F481E09F3F19F4EC
:1049600003C081E001C080E080FD19C0CE010E943B
:10497000C40681110CC00E94492A882381F08A81D3
:10498000882369F082E0DF91CF910C94DE2ACE017A
:104990000E948A24CE01DF91CF910C949906DF9179
:1049A000CF910895882321F00E94662A0C94942ABE
:1049B0000895882321F00E946C2A0C94942A08956B
:1049C0000E94732A0E94762A0E94942A80E090E036
:1049D0000E94BF2080E090E00C94D520809182025C
:1049E000909183020E949F2C0C94E0240E94602AE4
:1049F0000C94EE24E92FE295EF704E2F50E0FA016F
:104A00003297EE30F105B0F4EA56FF4F0C94CB34F8
:104A1000803F91F018F4883E68F40EC0843F51F452
:104A20000BC0883E48F0813F29F406C093FB8827DD
:104A300080F9089580E0089581E008950E94112A88
:104A40000E94FA240895CF93DF9300D000D01F92E4
:104A5000CDB7DEB70F900F900F900F900F90DF91B2
:104A6000CF910895CF93DF9300D000D000D0CDB781
:104A7000DEB726960FB6F894DEBF0FBECDBFDF912E
:104A8000CF9108951F93CF93DF93C091AB0416E0AD
:104A90008091AC04C81799F0D0E01C9FF0011D9FD5
:104AA000F00D1124E355FB4F4081518162817381E8
:104AB000848195810E9432252196C770E9CFDF91CC
:104AC000CF911F9108954091DD045091DE046091D3
:104AD000DF047091E0048091E1049091E2040C9471
:104AE00032250F931F93CF93DF938091E204829539
:104AF0008F7009F05DC08091DF04882309F458C0ED
:104B00008091AB041091AC046091DD047091DE04DF
:104B1000C091E004D091E10491E06F3F09F090E092
:104B2000292F06E0811709F443C0209721F07F3F29
:104B300021F030E003C031E001C0322F90E030FDC1
:104B400034C0089FF001099FF00D1124DF01A35527
:104B5000BB4F11963C911197371327C03C913613E8
:104B600024C012963C91129731111FC013964D919B
:104B70005C9114974C1B5D0B483C5105B0F480913F
:104B8000E2048F7080618093E204EE54FB4F8081D9
:104B90008F70806180838DED94E00E94A224DF916C
:104BA000CF911F910F910C94422501968770BACF37
:104BB000DF91CF911F910F9108959F92AF92BF9275
:104BC000CF92DF92EF92FF920F931F93CF93DF93D9
:104BD000CDB7DEB761970FB6F894DEBF0FBECDBF7D
:104BE0008C0185E0F801DE011D9601900D928A95F9
:104BF000E1F7F80140815181E2809091DD046091FC
:104C0000DE042091E0043091E1042115310531F0FA
:104C10006F3F31F481E09F3F19F403C081E001C090
:104C200080E0F82FF1709F2E80FD2CC1F801A38049
:104C3000B4808DEDC82E84E0D82EF090DF04F5010D
:104C4000E21BF30BFF2009F4EBC08091E204E83C87
:104C5000F10508F0A7C0282F207F09F052C0561395
:104C600013C0491311C0FE2CE1100EC08F7080617B
:104C70008093E2040E946325C6010E94A2248091D1
:104C8000E204F80185833EC1AB2831F05F3F31F487
:104C900081E04F3F19F403C081E001C080E080FD56
:104CA00003C081E08E2502C080E090E0F82FF17013
:104CB000FF2E80FF1CC08091AB042091AC0436E035
:104CC000821709F4FDC090E0389FF001399FF00D84
:104CD0001124E355FB4F6181561306C060814613D2
:104CE00003C06281E61203C001968770E9CFFE2CF3
:104CF000EE2009F407C18091E20481608093E20410
:104D000066C0561312C0491310C0E1100EC0F8015E
:104D10008583C8010E94A22486E0F801ADEDB4E0CD
:104D200001900D928A95E1F7C8C04D875E878D8509
:104D30009E850E941E25882379F1EE2069F120913D
:104D4000E204822F82958F7090E0029774F0809138
:104D5000DD049091DE0498878F831986BB86AA862E
:104D60002C87CE0107960E94A22486E0F801ADEDC3
:104D7000B4E001900D928A95E1F70E9471250E949E
:104D800063250DC0561729F14D875E878D859E8559
:104D90000E941E2581112CC0C8010E94A224FF245C
:104DA000F394B0C0282F207F69F77A2DB98AA88A9A
:104DB0006E2D89890E9423258DED94E00E94A22406
:104DC00086E0F60111928A95E9F70E946325F12C9D
:104DD00099C04913D9CFE110D7CFF8018583C80115
:104DE0000E94A22486E0F60111928A95E9F78AC012
:104DF000EE2091F22091E204822F82958F7090E054
:104E000002970CF4B2CF8091DD049091DE049A8376
:104E100089831B82BD82AC822E83CE010196A3CFF3
:104E2000E83CF10510F5FE2CEE2009F4B5CF561341
:104E30000BC0491309C086E0F801ADEDB4E0019064
:104E40000D928A95E1F75EC04D875E878D859E85C0
:104E50000E941E25811189CF8091E2048160809398
:104E6000E204C8010E94A2244DC07A2DB98AA88A02
:104E70006E2D89890E94232586E0F60111928A957C
:104E8000E9F71BC0EE2009F487CF4D875E878D853B
:104E90009E850E941E25F82E882309F47DCF86E08A
:104EA000F801ADEDB4E001900D928A95E1F78DED3A
:104EB00094E00E94DD210E9471250E94632522C09A
:104EC0004D875E878D859E850E94112A292F229508
:104ED0002F70223028F49F7039F0811105C00BC06B
:104EE000243028F49F7049F4805E883020F0C80197
:104EF0000E94A2249F2CF92C05C0F8019581907F77
:104F000099F7F9CF8F2D61960FB6F894DEBF0FBEDB
:104F1000CDBFDF91CF911F910F91FF90EF90DF9068
:104F2000CF90BF90AF909F90089588EC90E0089547
:104F30001F93CF93DF93CDB7DEB72C970FB6F894BE
:104F4000DEBF0FBECDBF4F83588769877A878B87B7
:104F50009C87CE0107960E94DD258823D1F09F8192
:104F600088852A853B85232B31F08F3F31F481E002
:104F70009F3F19F403C081E001C080E080FD47C07D
:104F80004F81588569857A858B859C850E9432255D
:104F90003EC086E0FE013796DE01119601900D922B
:104FA0008A95E1F7FF81E8856A857B856115710542
:104FB00031F0EF3F31F481E0FF3F19F403C081E0AD
:104FC00001C080E080FD23C02091AC0430E0C90125
:104FD0000196877099274091AB0450E0841795079C
:104FE000F1F1F983EA837D836C8396E0929FD0018F
:104FF000939FB00D1124A355BB4FFE013196019034
:105000000D929A95E1F78093AC040E94422516E038
:105010008091AB049091AC04891771F1189FC00185
:10502000112483559B4F0E94DD25882329F1E091AF
:10503000AB041E9FF0011124E355FB4F40815181C9
:1050400062817381848195810E9432258091AB04B5
:1050500090E00196877099278093AB04D9CF0E9486
:10506000F6241092AC041092AB04EDEDF4E086E06F
:10507000DF011D928A95E9F72C960FB6F894DEBFF2
:105080000FBECDBFDF91CF911F9108950895089570
:105090000C9447280C9448280E944A2860930505E0
:1050A0007093060580930705909308050C94E024FF
:1050B0000C944C280F931F93009105051091060541
:1050C0002091070530910805602B712B822B932BC3
:1050D0001F910F910C944C280F931F93009105057D
:1050E0001091060520910705309108056023712372
:1050F000822393231F910F910C944C280F931F939D
:1051000000910505109106052091070530910805CD
:1051100060277127822793271F910F910C944C28A9
:105120000C9447280E949028609301057093020513
:1051300080930305909304050C94E02460E070E0F4
:10514000CB010C949228611571058105910529F414
:1051500081E0442361F080E00895DC01CB0104C0CC
:10516000B695A795979587954A95D2F7817008953A
:10517000482F60910105709102058091030590917F
:1051800004050C94A3280F931F9341E050E060E0C6
:1051900070E08A019B0104C0000F111F221F331F02
:1051A0008A95D2F7C901B8011F910F910C949228EA
:1051B0000F931F9341E050E060E070E004C0440FA3
:1051C000551F661F771F8A95D2F780910105909130
:1051D0000205A0910305B09104058A019B01082BEB
:1051E000192B2A2B3B2BC901B8011F910F910C944D
:1051F00092280F931F9341E050E060E070E004C0FC
:10520000440F551F661F771F8A95D2F7409550951A
:10521000609570958091010590910205A09103051C
:10522000B09104058A019B01082319232A233B23FB
:10523000C901B8011F910F910C9492280F931F93ED
:1052400041E050E060E070E004C0440F551F661F6D
:10525000771F8A95D2F78091010590910205A09160
:105260000305B09104058A019B01082719272A2705
:105270003B27C901B8011F910F910C9492280F93FD
:105280001F930091010510910205209103053091B3
:105290000405602B712B822B932B1F910F910C9483
:1052A00092280F931F930091010510910205209100
:1052B00003053091040560237123822393231F91FA
:1052C0000F910C9492280F931F9300910105109158
:1052D000020520910305309104056027712782277C
:1052E00093271F910F910C9492280895292F220F34
:1052F000920F990F890FE82FE695E695E69587704E
:1053000051E001C0550F8A95EAF785E0E89FF0016A
:105310001124ED51FB4F20E030E070E04081CB01E3
:10532000022E02C0969587950A94E2F781708195C6
:1053300084278523842781932F5F3F4F25303105B4
:1053400069F70895292F220F920F990F890F682F5F
:10535000669566956695982F977085E0689FB00171
:10536000112440E050E080E0FB01E40FF51FED5117
:10537000FB4F208130E0092E02C0369527950A9414
:10538000E2F721703327042E01C0220F0A94EAF7B6
:10539000822B4F5F5F4F4530510531F70895BF9223
:1053A000CF92DF92EF92FF920F931F93CF93DF93F1
:1053B0008C01C0900105D0900205E0900305F090AB
:1053C00004058091050590910605A0910705B0910F
:1053D0000805C82AD92AEA2AFB2ACFE1D0E0D7015A
:1053E000C6010C2E04C0B695A795979587950A948B
:1053F000D2F780FD04C0219790F7B12C07C0BC2ED6
:10540000B8018C2F0E943A070197A9F38B2DDF91E9
:10541000CF911F910F91FF90EF90DF90CF90BF90B1
:105420000895CF93DF93EC010E94CF29BE010E9423
:105430003A07DF91CF9108951F93CF93DF93EB014C
:105440009091AA04992321F0CB010E94112A13C044
:10545000882349F0CB010E94CF29182F682FCE0155
:105460000E94762904C0CB010E94A229182FBE01F8
:10547000812F0E943A07DF91CF911F91089580916B
:10548000090585958595859508958091090587700D
:10549000089590910905977081E009F480E00895DE
:1054A00080912D05089590912D05892B80932D05D0
:1054B0000895809590912D05892380932D05089559
:1054C00010922D05089580912C05089590912C053A
:1054D000892B80932C050895809590912C05892324
:1054E00080932C05089510922C05089510922B0599
:1054F000089580910A05089508950C947C2A0C94CF
:105500007D2A90910A05981721F080930A050C9442
:105510007F2A089580910A05882329F010920A05B0
:1055200080E00C947F2A0895E0918202F09183023A
:1055300080912D058083E0918202F0918302908119
:1055400080912C05892B8083E0918202F091830267
:10555000908180912B05892B808380910A05882377
:1055600081F0E0918202F09183029081892B808307
:1055700080918202909183020E94F32B81110E94FC
:105580008A2A80918202909183020C94A5200C9427
:105590007C2A98E0899F90011124262B20930905ED
:1055A0000E94D828809109058595859585950C944C
:1055B000C72A1092090580E00C94C72A209109059A
:1055C0008095822380930905982F977079F430E0B5
:1055D000482F082E000C550B2417350739F08595F8
:1055E000859585950E94F9280C94D92A0895CF9223
:1055F000DF92EF92FF926C01EE24FF24C114D104DC
:10560000E104F10421F0C701B60120E101C020E06E
:10561000C72ED82EE92EFF24C114D104E104F104D1
:1056200019F0285FC701B6016B017C0154E0F694C4
:10563000E794D794C7945A95D1F7C114D104E104E3
:10564000F10419F02C5FC701B6016B017C0142E047
:10565000F694E794D794C7944A95D1F7C114D1042E
:10566000E104F10419F02E5FC701B601DC01CB01A2
:10567000B695A79597958795892B8A2B8B2B09F043
:105680002F5F822FFF90EF90DF90CF90089580E002
:1056900090E00E947D3521E08C3E9E4F09F020E095
:1056A000822F089582E090E00C94753583E090E0BD
:1056B0000C947535682F83E090E00C949335CF936C
:1056C00084E090E00E947535C82F81E290E00E944E
:1056D00075352C2F30E0A901582BCA01CF910895C0
:1056E000CF93C92F682F84E090E00E9493356C2FF0
:1056F00081E290E0CF910C949335AB01BC018FE037
:1057000090E00C94A535AB01BC0183E190E00C94D2
:10571000A53560E070E0CB010C94832B60E070E075
:10572000CB010E947D2B0C94892B6CEE7EEF80E0E8
:1057300090E00E94B13560E082E090E00E949335F5
:1057400060E083E090E00E9493351092050510928E
:105750000605109207051092080560E084E090E0CD
:105760000E94933560E081E290E00E94933560E012
:1057700085E090E00E94933560E086E090E00E9432
:1057800093356FEF87E090E00E94933540E050E062
:10579000BA0188E090E00E94A53560E08DE090E0DD
:1057A0000E94933540E050E0BA0188E190E00E9409
:1057B000A53560E087E190E00E94933540E050E03D
:1057C000BA018CE190E00E94A53560E080E290E0B3
:1057D0000E9493350C948E2B0C94952B682F8EE0A1
:1057E00090E00C949335FC01329680918E028823D0
:1057F00031F08091300887FF02C09EE101C096E041
:1058000080E0915028F021912223D9F38F5FF9CFC6
:105810000895662351F120918E022223E9F0209110
:10582000300827FF19C0462F4695469546954E31BC
:10583000E0F4677021E030E002C0220F331F6A9568
:10584000E2F7FC01E40FF11D828190E02823392367
:1058500081E0232B69F409C0FC013296089621915E
:10586000621729F0E817F907D1F780E0089581E081
:1058700008959C01FC0132969FEF80E0419146170C
:1058800089F09F3F19F4411101C0982F8F5F863036
:10589000A9F79F3F39F0F901E90FF11D97FDFA953E
:1058A0006283089508959C012A5F3F4FFC01428165
:1058B000461301C01282019682179307B9F7089523
:1058C000262F2695269526952E3168F4FC01E20FA9
:1058D000F11D677021E030E001C0220F6A95EAF700
:1058E0008281282B22830895262F2695269526959A
:1058F0002E3170F4FC01E20FF11D677021E030E001
:1059000001C0220F6A95EAF720958281282322831D
:10591000089520918E02222329F02091300827FD3E
:105920000C94602C0C94392C20918E02222329F0A7
:105930002091300827FD0C94742C0C94532C20914A
:105940008E02FC013296222331F08091300887FFCD
:1059500002C08EE101C086E0DF011D928A95E9F761
:10596000089508950C94B12C0C94B12CCF930E94FF
:10597000B42C0E944C040E94B22CC0E08C2F0E94D8
:10598000C204811104C0CF5FC830C1F701C081E0FB
:10599000CF9108950C94F7050E94CA2C8091360887
:1059A000843049F110922F0520E488E190E00FB691
:1059B000F894A895809360000FBE2093600080E06B
:1059C0000E941E070E94CA2C83B7817F846083BF18
:1059D00083B7816083BF7894889583B78E7F83BFB8
:1059E0000FB6F894A895809160008861809360005C
:1059F000109260000FBE08950C94FA050E94F624E0
:105A00000E9499200E941E070C94FC2C1F920F925A
:105A10000FB60F9211248F939F93AF93BF938091F2
:105A20002F05811113C080912C0890912D08A09111
:105A30002E08B0912F084196A11DB11D80932C080E
:105A400090932D08A0932E08B0932F08BF91AF918B
:105A50009F918F910F900FBE0F901F90189582E02D
:105A600084BD93E095BD9AEF97BD80936E00089535
:105A70002FB7F89480912C0890912D08A0912E08B2
:105A8000B0912F082FBF08952FB7F89460912C087C
:105A900070912D0880912E0890912F082FBF0895A6
:105AA0009C014FB7F89480912C0890912D08A091FB
:105AB0002E08B0912F084FBF821B930B0895CF92F1
:105AC000DF92EF92FF922FB7F894C0902C08D090FD
:105AD0002D08E0902E08F0902F082FBFA701960107
